:100000000C942A000C9450010C943C000C943C007D
:100010000C943C000C943C000C943C000C943C0070
:100020000C943C000C943C000C943C000C943C0060
:100030000C943C000C943C000C943C000C943C0050
:100040000C943C000C943C000C943C000C943C0040
:100050000C943C0011241FBECFE5D8E0DEBFCDBF1D
:1000600020E0A0E6B0E001C01D92A336B207E1F7A0
:100070000E946F010C947C040C9400000E94BD024D
:1000800060E082E00E94570160E080E00E945C0135
:1000900061E080E00E945C0162E080E00E945C011F
:1000A00060E081E00E945C0161E081E00E945C010F
:1000B00062E081E00E945C0162E080E00E946101F8
:1000C00081E08093600088E893E10E94CA0262E0C8
:1000D00080E00E94660110926000C0E0D0E00CC099
:1000E00081E08093620061E080E00E946B0184EF18
:1000F00091E00E94CA022196CA30D1058CF3109279
:10010000620060E080E00E94610181E08093610014
:1001100088E893E10E94CA0260E080E00E946601E4
:1001200010926100C0E0D0E00CC081E080936200DA
:1001300061E080E00E946B0184EF91E00E94CA02BE
:100140002196CA30D1058CF310926200B5CF60E0E1
:1001500080E00E94660161E080E00E94660162E04A
:1001600080E00E946601089560E081E00E946601DF
:1001700061E081E00E94660162E081E00E94660128
:1001800008950E94A7000E94B40080916100813010
:1001900081F562E00E94610160E080E00E946101FF
:1001A00088E893E10E94CA0260E080E00E94660154
:1001B000C0E0D0E00DC061E081E00E946B0161E031
:1001C00080E00E946B0184EF91E00E94CA022196B8
:1001D000CA30D10584F362E081E00E94660160E0EC
:1001E00081E00E94610162E080E00E9461010E9462
:1001F0003E0080916000813029F080916200813062
:1002000009F04CC060E081E00E946101C0E0D0E0F4
:100210000DC061E081E00E946B0161E080E00E941E
:100220006B0184EF91E00E94CA022196CA30D10589
:1002300084F360E081E00E94660160E080E00E945B
:10024000610162E081E00E94610188E893E10E941F
:10025000CA0260E080E00E946601C0E0D0E00DC00C
:1002600061E081E00E946B0161E080E00E946B012F
:1002700084EF91E00E94CA022196CA30D10584F32E
:1002800062E081E00E94660160E081E00E9461011D
:1002900062E080E00E9461010E943E000E943E00F8
:1002A0001F920F920FB60F9211240E94C10040E0DE
:1002B0000E94740180E0089541E00E94740180E092
:1002C000089541E00E94FE0180E0089540E00E9410
:1002D000FE0180E008950E94880280E008950E9457
:1002E0003E0080E090E00895813031F138F08230B6
:1002F00009F440C0833009F45AC076C041110DC0E2
:100300002BB381E090E002C0880F991F6A95E2F755
:10031000809582238BBB80E00895413009F066C050
:100320002BB381E090E002C0880F991F6A95E2F735
:10033000822B8BBB80E0089541110DC028B381E072
:1003400090E002C0880F991F6A95E2F7809582239A
:1003500088BB80E00895413009F04AC028B381E0AD
:1003600090E002C0880F991F6A95E2F7822B88BB44
:1003700080E0089541110DC025B381E090E002C0F6
:10038000880F991F6A95E2F78095822385BB80E0EC
:100390000895413079F525B381E090E002C0880FDF
:1003A000991F6A95E2F7822B85BB80E00895411181
:1003B0000DC022B381E090E002C0880F991F6A95BA
:1003C000E2F78095822382BB80E008954130A1F45A
:1003D00022B381E090E002C0880F991F6A95E2F78E
:1003E000822B82BB80E0089580E0089581E008952B
:1003F00081E0089581E0089581E00895813031F130
:1004000038F0823009F440C0833009F45AC076C015
:1004100041110DC02AB381E090E002C0880F991FFE
:100420006A95E2F7809582238ABB80E00895413087
:1004300009F066C02AB381E090E002C0880F991FDE
:100440006A95E2F7822B8ABB80E0089541110DC0C6
:1004500027B381E090E002C0880F991F6A95E2F708
:100460008095822387BB80E00895413009F04AC01F
:1004700027B381E090E002C0880F991F6A95E2F7E8
:10048000822B87BB80E0089541110DC024B381E029
:1004900090E002C0880F991F6A95E2F78095822349
:1004A00084BB80E00895413079F524B381E090E089
:1004B00002C0880F991F6A95E2F7822B84BB80E007
:1004C000089541110DC021B381E090E002C0880F72
:1004D000991F6A95E2F78095822381BB80E0089599
:1004E0004130A1F421B381E090E002C0880F991F50
:1004F0006A95E2F7822B81BB80E0089580E0089541
:1005000081E0089581E0089581E0089581E00895F3
:10051000813089F028F08230C9F0833011F12BC08E
:100520002AB381E090E002C0880F991F6A95E2F734
:1005300082278ABB20C027B381E090E002C0880FE9
:10054000991F6A95E2F7822787BB15C024B381E023
:1005500090E002C0880F991F6A95E2F7822784BB5A
:100560000AC021B381E090E002C0880F991F6A950C
:10057000E2F7822781BB80E00895789485B7836095
:1005800085BF8BB780648BBF80E0089513BE12BE19
:1005900080E00895CF93DF93EC010E94C602BE0174
:1005A00080E090E00E94400320E030E04AE754E41D
:1005B0000E94E70320E030E040E85BE30E94E703AD
:1005C0000E94FA020E94110383B7816083BF20E07A
:1005D00030E008C008B600FEFDCF88B7816088BF54
:1005E0002F5F3F4F26173707A8F313BE80E0DF9138
:1005F000CF9108950E94C80390F09F3748F491115D
:1006000016F40C94E10360E070E080E89FE3089545
:1006100026F01B16611D711D811D0C947D030C9429
:1006200098030E94AE0388F09F5798F0B92F99273E
:10063000B751B0F0E1F0660F771F881F991F1AF0CD
:10064000BA95C9F714C0B13091F00E94E003B1E04F
:1006500008950C94E003672F782F8827B85F39F04E
:10066000B93FCCF3869577956795B395D9F73EF466
:1006700090958095709561957F4F8F4F9F4F08950E
:10068000E89409C097FB3EF490958095709561952C
:100690007F4F8F4F9F4F9923A9F0F92F96E9BB27E2
:1006A0009395F695879577956795B795F111F8CF5E
:1006B000FAF4BB0F11F460FF1BC06F5F7F4F8F4FC9
:1006C0009F4F16C0882311F096E911C0772321F0BF
:1006D0009EE8872F762F05C0662371F096E8862F57
:1006E00070E060E02AF09A95660F771F881FDAF7AE
:1006F000880F9695879597F90895882371F4772345
:1007000021F09850872B762F07C0662311F4992784
:100710000DC09051862B70E060E02AF09A95660F2C
:10072000771F881FDAF7880F9695879597F90895B0
:100730009F3F31F0915020F4879577956795B79555
:10074000880F911D9695879597F9089557FD9058B4
:10075000440F551F59F05F3F71F04795880F97FB85
:10076000991F61F09F3F79F087950895121613063F
:100770001406551FF2CF4695F1DF08C0161617066E
:100780001806991FF1CF86957105610508940895A3
:100790000E94AE03A0F0BEE7B91788F4BB279F38CC
:1007A00060F41616B11D672F782F8827985FF7CF52
:1007B000869577956795B11D93959639C8F30895F9
:1007C000E894BB2766277727CB0197F908950E9405
:1007D000FA030C946B040E945D0438F00E946404D8
:1007E00020F0952311F00C9454040C945A04112415
:1007F0000C94E1030E94A60370F3959FC1F3950F3B
:1008000050E0551F629FF001729FBB27F00DB11D94
:10081000639FAA27F00DB11DAA1F649F6627B00D24
:10082000A11D661F829F2227B00DA11D621F739F0D
:10083000B00DA11D621F839FA00D611D221F749F1B
:100840003327A00D611D231F849F600D211D822F62
:10085000762F6A2F11249F5750409AF0F1F0882389
:100860004AF0EE0FFF1FBB1F661F771F881F9150B6
:100870005040A9F79E3F510580F00C9454040C940D
:10088000E1035F3FE4F3983ED4F38695779567954F
:10089000B795F795E7959F5FC1F7FE2B880F911DE0
:1008A0009695879597F9089597F99F6780E870E086
:1008B00060E008959FEF80EC089500240A941616D6
:1008C000170618060906089500240A94121613063E
:1008D000140605060895092E0394000C11F48823CC
:1008E00052F0BB0F40F4BF2B11F460FF04C06F5FE8
:0C08F0007F4F8F4F9F4F0895F894FFCF6B
:00000001FF
