S01400004472697665727320546573742E7372656371
S11300000C942A000C949E000C9434000C9434003C
S11300100C9434000C9434000C9434000C9434008C
S11300200C9434000C9434000C9434000C9434007C
S11300300C9434000C9434000C9434000C9434006C
S11300400C9434000C9434000C9434000C9434005C
S11300500C94340011241FBECFE5D8E0DEBFCDBF21
S11300600E9452000C9416040C94000040E00E947C
S1130070B50080E008950E94FE0180E0089541E00B
S11300800E94B50080E0089541E00E943F0180E0B5
S1130090089540E00E943F0180E008950E94C90154
S11300A080E00895CF93DF931F92CDB7DEB760E071
S11300B080E00E943F0060E080E00E94440080ED08
S11300C097E00E94640260E080E00E94490000E042
S11300D010E00AC060E080E00E944E008AEF90E0E9
S11300E00E9464020F5F1F4F043011059CF30E94AD
S11300F0570262E083E00E943600198260E081E0EA
S11301000E943600AE014F5F5F4F60E081E00E94C5
S11301103B008981813059F70BC060E080E00E9488
S11301204E008AEF90E00E9464020F5F1F4F02C0EE
S113013000E010E00430110584F3D9CF1F920F9230
S11301400FB60F92112460E082E00E943F0060E04D
S113015082E00E94440088EE93E00E94640260E022
S113016082E00E9449000E945200813031F138F04F
S1130170823009F440C0833009F45AC076C041117A
S11301800DC02BB381E090E002C0880F991F6A95DF
S1130190E2F7809582238BBB80E00895413009F01B
S11301A066C02BB381E090E002C0880F991F6A9566
S11301B0E2F7822B8BBB80E0089541110DC028B378
S11301C081E090E002C0880F991F6A95E2F780955C
S11301D0822388BB80E00895413009F04AC028B3E7
S11301E081E090E002C0880F991F6A95E2F7822BA4
S11301F088BB80E0089541110DC025B381E090E0F3
S113020002C0880F991F6A95E2F78095822385BB07
S113021080E00895413079F525B381E090E002C093
S1130220880F991F6A95E2F7822B85BB80E00895B9
S113023041110DC022B381E090E002C0880F991FE4
S11302406A95E2F78095822382BB80E0089541306D
S1130250A1F422B381E090E002C0880F991F6A954F
S1130260E2F7822B82BB80E0089580E0089581E06C
S1130270089581E0089581E0089581E00895813032
S113028031F138F0823009F440C0833009F45AC0A7
S113029076C041110DC02AB381E090E002C0880FFE
S11302A0991F6A95E2F7809582238ABB80E00895BE
S11302B0413009F066C02AB381E090E002C0880FA3
S11302C0991F6A95E2F7822B8ABB80E00895411159
S11302D00DC027B381E090E002C0880F991F6A9592
S11302E0E2F78095822387BB80E00895413009F0CE
S11302F04AC027B381E090E002C0880F991F6A9535
S1130300E2F7822B87BB80E0089541110DC024B32E
S113031081E090E002C0880F991F6A95E2F780950A
S1130320822384BB80E00895413079F524B381E0D1
S113033090E002C0880F991F6A95E2F7822B84BB74
S113034080E0089541110DC021B381E090E002C026
S1130350880F991F6A95E2F78095822381BB80E01C
S113036008954130A1F421B381E090E002C0880FE8
S1130370991F6A95E2F7822B81BB80E0089580E0A3
S1130380089581E0089581E0089581E0089581E071
S11303900895813089F028F08230C9F0833011F15A
S11303A02BC02AB381E090E002C0880F991F6A95A0
S11303B0E2F782278ABB20C027B381E090E002C025
S11303C0880F991F6A95E2F7822787BB15C024B36B
S11303D081E090E002C0880F991F6A95E2F78227B6
S11303E084BB0AC021B381E090E002C0880F991F4A
S11303F06A95E2F7822781BB80E008958130D1F0CD
S113040028F0823059F18330E9F14FC029B381E0FB
S113041090E0062E02C0880F991F0A94E2F7822307
S113042089BB90E002C0959587956A95E2F7FA0139
S113043080833BC026B381E090E0062E02C0880F83
S1130440991F0A94E2F7822386BB90E002C0959537
S113045087956A95E2F7FA01808327C023B381E088
S113046090E0062E02C0880F991F0A94E2F78223B7
S113047083BB90E002C0959587956A95E2F7FA01EF
S1130480808313C020B381E090E0062E02C0880F61
S1130490991F0A94E2F7822380BB90E002C09595ED
S11304A087956A95E2F7FA01808380E0089578944D
S11304B085B7836085BF8BB780648BBF80E0089568
S11304C013BE12BE80E00895CF93DF93EC010E9427
S11304D06002BE0180E090E00E94DA0220E030E099
S11304E04AE754E40E94810320E030E040E85BE303
S11304F00E9481030E9494020E94AB0283B7816030
S113050083BF20E030E008C008B600FEFDCF88B706
S1130510816088BF2F5F3F4F26173707A8F313BEAC
S113052080E0DF91CF9108950E94620390F09F379D
S113053048F4911116F40C947B0360E070E080E8B9
S11305409FE3089526F01B16611D711D811D0C94F7
S113055017030C9432030E94480388F09F5798F0C5
S1130560B92F9927B751B0F0E1F0660F771F881FB4
S1130570991F1AF0BA95C9F714C0B13091F00E94CE
S11305807A03B1E008950C947A03672F782F8827B3
S1130590B85F39F0B93FCCF3869577956795B395F5
S11305A0D9F73EF490958095709561957F4F8F4F64
S11305B09F4F0895E89409C097FB3EF49095809569
S11305C0709561957F4F8F4F9F4F9923A9F0F92F15
S11305D096E9BB279395F695879577956795B79593
S11305E0F111F8CFFAF4BB0F11F460FF1BC06F5F79
S11305F07F4F8F4F9F4F16C0882311F096E911C08B
S1130600772321F09EE8872F762F05C0662371F0AB
S113061096E8862F70E060E02AF09A95660F771FBF
S1130620881FDAF7880F9695879597F90895882398
S113063071F4772321F09850872B762F07C0662317
S113064011F499270DC09051862B70E060E02AF0D8
S11306509A95660F771F881FDAF7880F9695879506
S113066097F908959F3F31F0915020F4879577953D
S11306706795B795880F911D9695879597F9089575
S113068057FD9058440F551F59F05F3F71F047953F
S1130690880F97FB991F61F09F3F79F08795089524
S11306A0121613061406551FF2CF4695F1DF08C043
S11306B0161617061806991FF1CF86957105610560
S11306C0089408950E944803A0F0BEE7B91788F47F
S11306D0BB279F3860F41616B11D672F782F882723
S11306E0985FF7CF869577956795B11D9395963961
S11306F0C8F30895E894BB2766277727CB0197F9B9
S113070008950E9494030C9405040E94F70338F0A2
S11307100E94FE0320F0952311F00C94EE030C9438
S1130720F40311240C947B030E94400370F3959FFF
S1130730C1F3950F50E0551F629FF001729FBB27D4
S1130740F00DB11D639FAA27F00DB11DAA1F649F70
S11307506627B00DA11D661F829F2227B00DA11D23
S1130760621F739FB00DA11D621F839FA00D611DA9
S1130770221F749F3327A00D611D231F849F600DCA
S1130780211D822F762F6A2F11249F5750409AF0F3
S1130790F1F088234AF0EE0FFF1FBB1F661F771F7F
S11307A0881F91505040A9F79E3F510580F00C944A
S11307B0EE030C947B035F3FE4F3983ED4F38695F9
S11307C077956795B795F795E7959F5FC1F7FE2BEA
S11307D0880F911D9695879597F9089597F99F67C6
S11307E080E870E060E008959FEF80EC08950024B5
S11307F00A941616170618060906089500240A9482
S113080012161306140605060895092E0394000C07
S113081011F4882352F0BB0F40F4BF2B11F460FF96
S113082004C06F5F7F4F8F4F9F4F0895F894FFCFA1
S9030000FC
